:100000000C9457010C9488010C9488010C9488017D
:100010000C9488010C9488010C9488010C9488013C
:100020000C9488010C9488010C9488010C9488012C
:100030000C9488010C9488010C9488010C9488011C
:100040000C9488010C9488010C9488010C9488010C
:100050000C9488010C9488010C9488010C945A0724
:100060000C9488010C9424070C94FA060C948801D3
:100070000C9488010C9488010C9488010C948801DC
:100080000C9488010C9488010C9488010C948801CC
:100090000C9488010C9488010C9488010C948801BC
:1000A0000C9488010C9488010C9488010C948801AC
:1000B0000C9488010C9488010C9488010C9488019C
:1000C0000C9488010C9488010C9488010C9488018C
:1000D0000C9488010C9488010C9488010C9488017C
:1000E0000C9488010C94AA030C946B020C94C30327
:1000F0000C9460040C94B1040C94DF030C948D02F6
:100100000C94CD030C949D040C942F020C94C50206
:100110000C94E5030C9458040C94C0040C94D4047F
:100120000C9479040C9412030C947C0A0C949303A1
:100130000C94DE040C94B6030C94BF030C94980347
:100140000C94AE030C94A7040C94C9030C94D10333
:100150000C945C020C947F020C94E8040C946F04E1
:100160000C94D7030C94DB030C9483040C94B90314
:100170000C948B040C94CA040C9493040C94F20415
:100180000C94B2030C94E9030C9465040000210064
:10019000240027002A002D00300033000101000058
:1001A000040107010A0100000A0B02090C0D0E08E8
:1001B0000703040100000000000000000000000030
:1001C000000000000000000000000000000000002F
:1001D00000001211100000000000000000000000EC
:1001E00000000000000000000000000000002000EF
:1001F0002300260029002C002F00320000010000FF
:1002000003010601090100002200250028002B003F
:100210002E003100340002010000050108010B012D
:1002200005050505070508080808020202020A0A72
:100230000808040404040101010101010101030390
:10024000030303030303040707070C0C0C0C0C0C3B
:100250000C0C0202020206060606060606060B0B38
:100260000B0B0B0B0B0B0102102020080810204079
:10027000102040800201020108040201010204086A
:1002800010204080804020100804020180040201F8
:100290008040201008040201080402010102040841
:1002A0001020408001020408102040807C0A1124A4
:1002B0001FBECFEFD1E2DEBFCDBF00E00CBF12E02A
:1002C000A0E0B2E0E6EBF8E100E00BBF02C007906F
:1002D0000D92AE3FB107D9F723E0AEEFB2E001C017
:1002E0001D92AA3DB207E1F711E0C7E5D1E000E0B9
:1002F00006C021970109802FFE010E94510CC635CE
:10030000D10780E00807A9F70E94A4070C94590CB4
:100310000C9400009FB7F894AFE0B3E09196ED9194
:10032000FC919297808190962C91822B80839FBF25
:1003300008959FB7F894AFE0B3E05E96ED91FC911D
:100340005F9780815D962C91822B80839FBF08955B
:100350009FB7F894AFE0B3E05B96ED91FC915C97AA
:1003600080815A962C91822B80839FBF0895DF92C3
:10037000EF92FF920F931F93CF93DF93109224037A
:10038000D12CC82F880FDD0B0BE010E0EE24E39496
:10039000F12C80912403883008F042C09E0102C0F5
:1003A000359527958A95E2F720FF2CC00E94990188
:1003B0008FB7F894E0912A03F0912B03208190915C
:1003C00029039095922390838FBFC8010197F1F77D
:1003D000E0913303F09134038081909132038923BB
:1003E00049F080912403970102C0220F331F8A95A0
:1003F000E2F7D22A0E94A801809124038F5F8093A4
:100400002403C7CF8FB7F894E0912D03F0912E030A
:10041000208190912C039095922390838FBFC8CF19
:100420000E9499018BE090E00197F1F78D2DDF910B
:10043000CF911F910F91FF90EF90DF9008959FB79C
:10044000F894AFE0B3E09196ED91FC919297208102
:1004500090968C918095822380839FBF0895AF9260
:10046000BF92CF92DF92EF92FF920F931F93CF93A1
:10047000DF936C017B018B01040F151FEB015E0103
:10048000AE18BF08C017D10759F06991D601ED9198
:10049000FC910190F081E02DC6011995892B79F727
:1004A000C501DF91CF911F910F91FF90EF90DF90E9
:1004B000CF90BF90AF900895FC01538D448D252FB0
:1004C00030E0842F90E0821B930B541710F0CF96EE
:1004D000089501970895FC01918D828D981761F020
:1004E000A28DAE0FBF2FB11D5D968C91928D9F5F37
:1004F0009F73928F90E008958FEF9FEF0895FC0116
:10050000918D828D981731F0828DE80FF11D858DC8
:1005100090E008958FEF9FEF0895FC01918D228D5B
:10052000892F90E0805C9F4F821B91098F739927E0
:1005300008958DE393E00E948D0221E0892B09F458
:1005400020E0822F0895FC01A48DA80FB92FB11DC2
:10055000A35ABF4F2C91848D90E001968F739927F9
:10056000848FA689B7892C93A089B1898C918370D7
:1005700080648C93938D848D981306C00288F389D0
:10058000E02D80818F7D80830895EF92FF920F93FD
:100590001F93CF93DF93EC0181E0888F9B8D8C8D2F
:1005A00098131AC0E889F989808185FF15C09FB723
:1005B000F894EE89FF896083E889F98980818370E6
:1005C000806480839FBF81E090E0DF91CF911F9195
:1005D0000F91FF90EF900895F62E0B8D10E00F5FB6
:1005E0001F4F0F731127E02E8C8D8E110CC00FB68C
:1005F00007FCFACFE889F989808185FFF5CFCE0124
:100600000E94A302F1CFEB8DEC0FFD2FF11DE35AF9
:10061000FF4FF0829FB7F8940B8FEA89FB898081A6
:100620008062CFCFCF93DF93EC01888D8823B9F020
:10063000AA89BB89E889F9898C9185FD03C08081ED
:1006400086FD0DC00FB607FCF7CF8C9185FFF2CF6A
:10065000808185FFEDCFCE010E94A302E9CFDF911B
:10066000CF91089580E090E0892B29F00E949902B3
:1006700081110E94000080E090E0892B49F080E029
:1006800090E0892B29F00E94000081110E94000057
:1006900080E090E0892B49F080E090E0892B29F000
:1006A0000E94000081110E94000080E090E0892BF0
:1006B00049F080E090E0892B29F00E940000811130
:1006C0000C9400000895282F30E0F901EA55FE4F00
:1006D0009491F901EA59FD4F4491205E3D4FF90193
:1006E0002491222309F435C0992311F191509231BC
:1006F000F8F4E92FF0E08827EF57FC4F8F4F0C9468
:10070000510CB203B6039303AA03AE039803B903D3
:10071000BF03C303C903CD03D103D703DB0398038E
:10072000DF03E503E903809180008F7780938000E9
:10073000E22FF0E0EE0FFF1FEA5FFD4FA591B491AD
:100740008FB7F894EC91611148C040954E234C93BB
:100750008FBF0895809180008F7DE8CF80918000C9
:10076000877FE4CF84B58F7784BDE2CF84B58F7D5A
:10077000FBCF8091B0008F778093B000D9CF80916C
:10078000B0008F7DF9CF809190008F77809390009B
:10079000CFCF809190008F7DF9CF80919000877F9F
:1007A000F5CF8091A0008F778093A000C1CF80917A
:1007B000A0008F7DF9CF8091A000877FF5CF809139
:1007C00020018F7780932001B3CF809120018F7D0E
:1007D000F9CF80912001877FF5CF4E2BB8CFCF93F3
:1007E000DF9390E0FC01EA59FD4F2491805E9D4F1C
:1007F000FC0184918823D1F090E0880F991FFC01BF
:10080000E457FE4FA591B491FC01EA5FFD4FC591FD
:10081000D49161110EC09FB7F8948C91E22FE095AE
:100820008E238C932881E223E8839FBFDF91CF91B1
:1008300008958FB7F894EC91E22BEC938FBFF6CF2D
:100840001F93CF93DF93182FEB0161E00E94EF031A
:10085000209739F460E0812FDF91CF911F910C94A4
:100860006303CF3FD10511F461E0F5CFE12FF0E054
:10087000EA55FE4FE491E150E23108F0B3C0F0E0F8
:100880008827EA5BFB4F8F4F0C94510C580460048F
:1008900065046F047904F20483048B0493049D04BB
:1008A000A704B104C004CA04F204D404DE04E804BA
:1008B00084B5806884BDC7BDDF91CF911F91089535
:1008C00084B5806284BDC8BDF7CF80918000806808
:1008D00080938000D0938900C0938800EDCF8091F1
:1008E0008000806280938000D0938B00C0938A0048
:1008F000E3CF80918000886080938000D0938D004A
:10090000C0938C00D9CF8091B00080688093B000F4
:10091000C093B300D1CF8091B00080628093B000CB
:10092000C093B400C9CF80919000806880939000FC
:10093000D0939900C0939800BFCF809190008062BF
:1009400080939000D0939B00C0939A00B5CF809184
:100950009000886080939000D0939D00C0939C008D
:10096000ABCF8091A00080688093A0008091A00010
:100970008F7B8093A000D093A900C093A8009CCF48
:100980008091A00080628093A000D093AB00C093C0
:10099000AA0092CF8091A00088608093A000D0939D
:1009A000AD00C093AC0088CF809120018068809317
:1009B0002001D0932901C09328017ECF809120018E
:1009C000806280932001D0932B01C0932A0174CFC1
:1009D00080912001886080932001D0932D01C093E5
:1009E0002C016ACFC038D1050CF03ECF33CF3FB7D2
:1009F000F8948091FF0290910003A0910103B091BF
:100A0000020326B5A89B05C02F3F19F00196A11D32
:100A1000B11D3FBFBA2FA92F982F8827BC01CD0148
:100A2000620F711D811D911D42E0660F771F881FA7
:100A3000991F4A95D1F708958F929F92AF92BF92D6
:100A4000CF92DF92EF92FF926B017C010E94F7043C
:100A50004B015C01C114D104E104F104B9F00E941E
:100A6000F704681979098A099B09683E7340810572
:100A7000910580F321E0C21AD108E108F10888EE5F
:100A8000880E83E0981EA11CB11CE4CFFF90EF906C
:100A9000DF90CF90BF90AF909F908F900895EF928E
:100AA000FF920F931F93CF93DF937C01062F0E9439
:100AB0001F02E70110E0CE018E199F0980179107F0
:100AC00024F489910E94B701F6CF0E948A016091B7
:100AD000390370E090E080E0DF91CF911F910F919A
:100AE000FF90EF900C941C0565E080E292E00E947C
:100AF0004F0569E087E192E00E944F0580913B033A
:100B0000882329F065E082E192E00E944F05809100
:100B10003C03882329F069E089E092E00E944F05B8
:100B200069E080E092E00C944F058F929F92AF9223
:100B3000BF92CF92DF92EF92FF921F93CF93DF93FA
:100B400000D000D000D0CDB7DEB7182F2FB7F89463
:100B500060910B0370910C0380910D0390910E0333
:100B60002FBFC0903503D0903603E0903703F0904C
:100B700038036C197D098E099F090E949A0B6B013D
:100B80007C0120E030E84BEB54E40E944C0C18163A
:100B900014F40E9474056091390370E090E080E0E5
:100BA0000E949C0B4B015C01AC019B01C701B6018B
:100BB0000E94660B87FF0AC0A7019601C501B40118
:100BC0000E94F90A0E946B0B0E941C05112371F010
:100BD000212F30E0AFEBB0E00E94EA0A2FEF30E0C7
:100BE00040E050E00E94A90A10E4120FFE01339683
:100BF00087E0DF011D928A95E9F781E0898382E42D
:100C00008A831D8315E02BE0C22ED12C7E01BAE031
:100C1000EB0EF11C0E9499010E94A8010E941F0284
:100C2000C6010197F1F7FE0131965F019FE0892E21
:100C300093E0992ED5018D915D010E94B701F401D9
:100C400081934F01AE14BF04A9F780911003893737
:100C500079F488E1A82E83E0B82E80E00E94B701E5
:100C6000D5018D935D01B4E2AB16B3E0BB06A9F7E5
:100C70000E948A0180911003807F803761F00E947A
:100C800074056091390370E090E080E00E941C05DB
:100C9000115009F0BFCF80911003807F803739F069
:100CA000809139038A3018F48F5F809339038091E3
:100CB0002703909128039093260380932503809126
:100CC00012039091130390932803809327032FB767
:100CD000F89480910B0390910C03A0910D03B091B7
:100CE0000E032FBF8093350390933603A0933703F1
:100CF000B093380390911003907F81E0903709F012
:100D000080E029960FB6F894DEBF0FBECDBFDF910D
:100D1000CF911F91FF90EF90DF90CF90BF90AF9059
:100D20009F908F900895CF92DF92EF92FF920F9352
:100D30001F93CF93DF936C017B018A01E90160E08F
:100D400097FF04C08FEFC80ED11C61E082E00E94C3
:100D5000630360E0F7FE04C08FEFE80EF11C61E072
:100D600084E00E94630360E017FF03C001501F4F3F
:100D700061E086E00E94630360E0D7FF03C0C150DA
:100D8000DF4F61E088E00E946303B60183E00E94C8
:100D90002004B70185E00E942004B80187E00E948A
:100DA0002004BE0189E0DF91CF911F910F91FF9048
:100DB000EF90DF90CF900C942004CF93DF93FC0151
:100DC00001900020E9F73197AF01481B590BBC0196
:100DD0008DE393E00E942F02EC0142E050E060E4DA
:100DE00072E08DE393E00E942F028C0F9D1FDF9134
:100DF000CF9108951F920F920FB60F9211240BB648
:100E00000F922F933F934F935F936F937F938F93A3
:100E10009F93AF93BF93EF93FF938DE393E00E9473
:100E2000A302FF91EF91BF91AF919F918F917F911D
:100E30006F915F914F913F912F910F900BBE0F904B
:100E40000FBE0F901F9018951F920F920FB60F9222
:100E500011240BB60F922F938F939F93EF93FF93D1
:100E6000E0914D03F0914E038081E0915303F091A6
:100E7000540382FD1DC09081809156038F5F8F7354
:100E800020915703821741F0E0915603F0E0E35CB4
:100E9000FC4F958F80935603FF91EF919F918F9117
:100EA0002F910F900BBE0F900FBE0F901F901895B3
:100EB0008081F2CF1F920F920FB60F9211242F93C1
:100EC0003F938F939F93AF93BF9380910B03909128
:100ED0000C03A0910D03B0910E033091FE0223E0AC
:100EE000230F2D3758F50196A11DB11D2093FE0249
:100EF00080930B0390930C03A0930D03B0930E0308
:100F00008091FF0290910003A0910103B091020330
:100F10000196A11DB11D8093FF0290930003A09341
:100F20000103B0930203BF91AF919F918F913F91C5
:100F30002F910F900FBE0F901F90189526E8230F4A
:100F40000296A11DB11DD2CFCF93DF9300D000D068
:100F500000D0CDB7DEB7789484B5826084BD84B507
:100F6000816084BD85B5826085BD85B5816085BDA4
:100F700080916E00816080936E001092810080915C
:100F800081008260809381008091810081608093E4
:100F90008100809180008160809380008091B10009
:100FA00084608093B1008091B00081608093B00034
:100FB0008091910082608093910080919100816086
:100FC0008093910080919000816080939000809147
:100FD000A10082608093A1008091A1008160809334
:100FE000A1008091A00081608093A00080912101E8
:100FF0008260809321018091210181608093210191
:101000008091200181608093200180917A0084602A
:1010100080937A0080917A00826080937A00809138
:101020007A00816080937A0080917A008068809352
:101030007A001092C100E0914D03F0914E0382E0DE
:101040008083E0914903F0914A031082E0914B03C1
:10105000F0914C038FEC808310925503E091510383
:10106000F091520386E08083E0914F03F0915003AA
:10107000808180618083E0914F03F09150038081F3
:1010800088608083E0914F03F091500380818068F5
:101090008083E0914F03F091500380818F7D8083A6
:1010A00061E082E00E94EF0361E084E00E94EF03D0
:1010B00061E086E00E94EF0361E088E00E94EF03B8
:1010C00060E082E00E94630360E084E00E946303CA
:1010D00060E086E00E94630360E088E00E946303B2
:1010E00051E3252E52E0352E64E7462E62E0562E5F
:1010F0007EE2672E72E0772EEBE0CE2ED12CF0E46C
:101100008F2EF2E09F2E83E492E00E94DD06E6E758
:10111000F2E0849180932903E0E3F2E08491E82FE8
:10112000F0E0EE0FFF1FEA5FFD4F859194919093E1
:101130002B0380932A03E5E7F2E0849180932C034C
:10114000EFE2F2E08491E82FF0E0EE0FFF1FEA5F9C
:10115000FD4F8591949190932E0380932D03E7E7A3
:10116000F2E0849180932F03F1018491E82FF0E065
:10117000EE0FFF1FEA5FFD4F85919491909331032D
:1011800080933003F201849180933203F3018491C0
:10119000E82FF0E0EE0FFF1FE451FE4F8591949190
:1011A000909334038093330361E080E10E94EF0366
:1011B00061E081E10E94EF0361E08FE00E94EF03B4
:1011C00060E08EE00E94EF0361E08EE00E94630326
:1011D0000E9499010E94A80180E00E94950580E08C
:1011E0000E94950580911003813429F0833719F00E
:1011F000893709F049C081E0809339030BE010E0A2
:1012000065E080E292E00E944F05C6010197F1F788
:101210000E9499010E94A8010E941F02C601019725
:10122000F1F787E3E82E82E0F82E9E012F5F3F4F13
:101230005901F70181917F010E94B701F501819366
:101240005F018E149F04A9F70E948A018C8180930C
:101250003A0369E087E192E00E944F0569E080E08F
:1012600092E00E944F0580E00E9495058091100356
:10127000833709F439C10150110931F080913903E4
:101280008F5F80933903BCCF68EE73E080E090E01D
:101290000E941C0538CF813009F46AC083E592E0D2
:1012A0000E94DD068BEA92E00E94DD0600E810E075
:1012B00080E00E94950580911703B801681B7109B1
:1012C000709306036093050380911603A801481BE1
:1012D000510950930403409303038091150398012F
:1012E000281B310930930A032093090380911403CA
:1012F0009801281B3109309308032093070380913C
:101300002703909128038095909584FD34C06F3118
:1013100071058CF586FF5EC02EEC3FEF4EEC5FEF63
:101320006EEC7FEF8EEC9FEF0E94930687EC92E0CD
:101330000E94DD0680912703909128038095909567
:1013400093FF45C086FD07C0809105039091060379
:10135000823E9F4FE4F525E63FEF45E65FEF6CE404
:101360007FEF8CE49FEF0E9493068EEC92E02DC0FD
:1013700082E792E095CF22E330E042E350E062E37F
:1013800070E082E390E00E94930687EB92E00E9477
:10139000DD0680912703909128038095909593FF17
:1013A00016C084FD06C080910503909106034F97F7
:1013B00074F024EB30E044EB50E060EA70E080EA47
:1013C00090E00E9493068CEB92E00E94DD060E9462
:1013D00032036ECF623E7F4F0CF49ECF87FF2BC04F
:1013E00020EB3FEF40E550E060EB7FEF80E590E0E1
:1013F0000E9493068BED92E00E94DD068091270308
:10140000909128038095909593FFE1CF87FD06C0CA
:1014100080910303909104034F97CCF22CE43FEFAB
:1014200044EB50E06CE47FEF84EB90E00E94930685
:1014300080EE92E0CACF4F31510594F685FF2DC062
:101440002CE330E040EB5FEF60E570E080EB9FEF76
:101450000E9493068BEE92E00E94DD0680912703A6
:10146000909128038095909593FFB1CF85FD08C09A
:101470008091030390910403823E9F4F0CF0A7CF0D
:101480002CE830E04CE45FEF64EB70E08CE49FEF1D
:101490000E94930681EF92E098CF423E5F4F84F224
:1014A000223E9FEF39075CF420EB3FEF40EB5FEF0C
:1014B00060E570E080E590E00E94930688CF2F31D0
:1014C00031054CF020E530E040E550E060EB7FEF87
:1014D00080EB9FEFF1CF30E020E050E040E070E0A3
:1014E00060E090E080E0E8CF80913A03833009F03B
:1014F000D2CE8FE892E0D4CEEDE3F3E013821282F5
:1015000088EE93E0A0E0B0E084839583A683B78360
:1015100089E292E09183808385EC90E095878487CF
:1015200084EC90E09787868780EC90E0918B808BAD
:1015300081EC90E0938B828B82EC90E0958B848B96
:1015400086EC90E0978B868B118E128E138E148E04
:101550000895052E97FB1EF400940E94C00A57FDC3
:1015600007D00E94C80A07FC03D04EF40C94C00AAE
:1015700050954095309521953F4F4F4F5F4F0895BF
:1015800090958095709561957F4F8F4F9F4F0895EF
:10159000A1E21A2EAA1BBB1BFD010DC0AA1FBB1F77
:1015A000EE1FFF1FA217B307E407F50720F0A21BE9
:1015B000B30BE40BF50B661F771F881F991F1A9456
:1015C00069F760957095809590959B01AC01BD0180
:1015D000CF010895A29FB001B39FC001A39F700DDA
:1015E000811D1124911DB29F700D811D1124911D2B
:1015F00008955058BB27AA270E94110B0C94120C77
:101600000E94040C38F00E940B0C20F039F49F3F2C
:1016100019F426F40C94010C0EF4E095E7FB0C94FD
:10162000FB0BE92F0E94230C58F3BA1762077307CC
:101630008407950720F079F4A6F50C94450C0EF478
:10164000E0950B2EBA2FA02D0B01B90190010C01D2
:10165000CA01A0011124FF27591B99F0593F50F4EA
:10166000503E68F11A16F040A22F232F342F442742
:10167000585FF3CF469537952795A795F04053953A
:10168000C9F77EF41F16BA0B620B730B840BBAF00A
:101690009150A1F0FF0FBB1F661F771F881FC2F775
:1016A0000EC0BA0F621F731F841F48F48795779589
:1016B0006795B795F7959E3F08F0B0CF9395880F43
:1016C00008F09927EE0F9795879508950E94D70BFC
:1016D00008F481E008950E942B0C88F09F5798F041
:1016E000B92F9927B751B0F0E1F0660F771F881F27
:1016F000991F1AF0BA95C9F714C0B13091F00E9441
:10170000450CB1E008950C94450C672F782F88277D
:10171000B85F39F0B93FCCF3869577956795B39567
:10172000D9F73EF490958095709561957F4F8F4FD6
:101730009F4F0895E89409C097FB3EF490958095DB
:10174000709561957F4F8F4F9F4F9923A9F0F92F87
:1017500096E9BB279395F695879577956795B79505
:10176000F111F8CFFAF4BB0F11F460FF1BC06F5FEB
:101770007F4F8F4F9F4F16C0882311F096E911C0FD
:10178000772321F09EE8872F762F05C0662371F01E
:1017900096E8862F70E060E02AF09A95660F771F32
:1017A000881FDAF7880F9695879597F90895990F0E
:1017B0000008550FAA0BE0E8FEEF16161706E8071B
:1017C000F907C0F012161306E407F50798F0621B3C
:1017D000730B840B950B39F40A2661F0232B242B11
:1017E000252B21F408950A2609F4A140A6958FEF30
:1017F000811D811D089597F99F6780E870E060E082
:1018000008959FEF80EC089500240A941616170699
:1018100018060906089500240A94121613061406E1
:1018200005060895092E0394000C11F4882352F044
:10183000BB0F40F4BF2B11F460FF04C06F5F7F4FFC
:101840008F4F9F4F089557FD9058440F551F59F0E3
:101850005F3F71F04795880F97FB991F61F09F3F9D
:1018600079F087950895121613061406551FF2CFC6
:101870004695F1DF08C0161617061806991FF1CF16
:1018800086957105610508940895E894BB2766273D
:101890007727CB0197F908950E94D70B08F48FEFB3
:1018A0000895EE0FFF1F881F8BBF0790F691E02D64
:0618B0001994F894FFCF2B
:1018B600014300005A5A5A5A5A014F00FFFF0300CB
:1018C6000000014D0000010144000103000000007A
:1018D600014300010000000000C5022F025C021255
:1018E600038D026B027F020145005A5A5A5A5A5A10
:1018F6000D0A0046696E6420436F6E74726F6C6CDD
:10190600657200556E6B6E6F776E20436F6E7472E4
:101916006F6C6C6572207479706520666F756E6485
:1019260020004775697461724865726F20436F6E57
:1019360074726F6C6C657220666F756E64200044FD
:1019460075616C53686F636B20436F6E74726F6C56
:101956006C657220666F756E6420004F4B2044657F
:10196600746563746564006D616A75006D616A759E
:1019760020747572626F006D756E647572006D7598
:101986006E64757220747572626F006B697269009D
:101996006B69726920747572626F006B616E616E3D
:0E19A600006B616E616E20747572626F0000DE
:00000001FF
